:020000040000FA
:100000000A128A11EE2F00308A000408840A82073F
:1000100000343134323433344134343435343634CA
:10002000423437343834393443342A343034233486
:02003000443456
:100BB000F03083160313860083160317890183160A
:100BC00003138113FF309500FF3083120313860057
:100BD00008005434653463346C3461343A3420345E
:100BE0002034203420342034203420342034203465
:100BF00020340034F5007508F40006300310F40DBD
:100C0000FF3E031DFE2D730874077F39803E0A12D4
:100C10008A1168270A128A1108007E088A007F0854
:100C200082000A128A110D260A128A118000840A93
:100C300004087D0603190034FF0A0319FE0A112E69
:100C40002E2EC730F200242EF20B232E272E282E14
:100C50000130F0020030031CF103F102700871044E
:100C6000031D332E342E212E0800FA007608F800DA
:100C70007808F9007608F8007808F3007A080A1274
:100C80008A11FA250A128A11552E77088400000865
:100C90000A128A115E260A128A110130F8007808B9
:100CA000F7070130F8007808F90777088400831304
:100CB0000008031D5C2E5D2E452E0800F2008312F5
:100CC000031308157208F00004300310F00CFF3E07
:100CD000031D652E7008F10004300310F10DFF3E76
:100CE000031D6D2E08080F397104880088110D301E
:100CF000F000F00B792E8312031388150815720883
:100D0000F00004300310F00DFF3E031D822E080892
:100D10000F397004880088110D30F000F00B8E2E12
:100D200083120313881508002430840035308312A1
:100D30000313A0000408A1001130A20020088400C1
:100D400083130008A300A00A210884002308800060
:100D5000A10AA20B9E2E0A128A11CE260A128A110D
:100D60000A128A11D8250A128A110A128A110D272D
:100D70000A128A1183120313A0002008AB00F601A7
:100D80002430A0002008F70000300A128A1135260E
:100D90000A128A11B52E0A128A1100286430F00056
:100DA0000030F1000A128A1120260A128A118316D5
:100DB000031308118811081288120813881364306D
:100DC000F0000030F1000A128A1120260A128A115E
:100DD00083120313881528300A128A1168270A1211
:100DE0008A110C300A128A1168270A128A110130FE
:100DF0000A128A1168270A128A1102300A128A110D
:100E000068270A128A116430F0000030F1000A12DB
:100E10008A1120260A128A110800F701F80104300D
:100E20007802031C142F152F162F662F0130F000A7
:100E3000780A1C2F0310F00DFF3E031D1A2F7008B7
:100E4000FF3A831203138600F9010609F000F1014D
:100E5000F109790AF2001030F3000030F400332F6A
:100E60000310F30DF40DF20B302F70087305F5002D
:100E700071087405F600750876040319402F412F98
:100E8000572F7808F00002300310F00DFF3E031DCD
:100E9000442F01307007F1007908710784000A12AD
:100EA0008A1103200A128A11F2007208F700013039
:100EB000F0007008F90704307902031C602F612FDD
:100EC000252F0130F0007008F8070F2F7708080071
:100ED000F2008312031308117208F00004300310AB
:100EE000F00CFF3E031D6F2F7008F100043003105B
:100EF000F10DFF3E031D772F08080F39710488009C
:100F0000881172030319852F862F8C2F02307206E9
:100F1000031D8B2F8C2F962F0330F1009730F0009C
:100F2000F00B902FF10B902F952F9A2F0D30F00092
:100F3000F00B982F831203138815F0307205F00020
:100F400020307006031DA52FA62FC32F081172088D
:100F5000F00004300310F00CFF3E031DAA2F7008B0
:100F6000F10004300310F10DFF3E031DB22F0808FD
:100F70000F397104880088110D30F000F00BBE2F7E
:100F800083120313881508117208F000043003104F
:100F9000F00DFF3E031DC72F08080F3970048800AD
:100FA000881172030319D52FD62FDC2F0230720659
:100FB000031DDB2FDC2FE62F0330F1009730F0000C
:100FC000F00BE02FF10BE02FE52FEA2F0D30F000B2
:100FD000F00BE82F831203138815080083134630A3
:100FE000FD000530FE00E930FF00353084000A12B4
:100FF0008A1111260A128A1183010A128A11942E6B
:04400E00D420FF3F7C
:00000001FF
