:020000040000FA
:060000000A128A110C280F
:10000800FE00030EF0000A08F1000A128A11852981
:100018000A128A110F2883133130FD000130FE00C7
:100028009830FF00203084000A128A1163210A12D6
:100038008A1183010A128A113029F40083120313EA
:1000480008127408F20004300310F20CFF3E031D7E
:1000580028280F307205F3000808F0397304880067
:1000680088127403031939283A2840280230740684
:10007800031D3F2840284A280330F3009730F20038
:10008800F20B4428F30B442849284E280D30F2007F
:10009800F20B4C28831203138816F0307405F20013
:1000A80020307206031D59285A287228081274082D
:1000B800F20004300310F20CFF3E031D5E280F30DF
:1000C8007205F3000808F0397304880088120D30AF
:1000D800F200F20B6D2883120313881608120F30F2
:1000E8007405F2000808F039720488008812740355
:1000F80003197F288028862802307406031D852866
:10010800862890280330F3009730F200F20B8A28F3
:10011800F30B8A288F2894280D30F200F20B9228CE
:1001280083120313881608006430F2000030F300CD
:100138000A128A114A210A128A1183160313881295
:10014800081208108810081188116430F200003075
:10015800F3000A128A114A210A128A118312031320
:10016800881628300A128A1121200A128A110C30A6
:100178000A128A1121200A128A1101300A128A11E0
:1001880021200A128A1102300A128A1121200A1229
:100198008A116430F2000030F3000A128A114A21F1
:1001A8000A128A11080083120313B2007808FA00B1
:1001B8007A08B1007808FA007A08F50032080A12BD
:1001C8008A1172210A128A11FB2879088400000812
:1001D8000A128A1104210A128A110130FA007A08D7
:1001E800F9070130FA007A0883120313B107790876
:1001F800840083130008031D02290329E928080045
:10020800F4008312031308167408F2000430031074
:10021800F20CFF3E031D0B290F307205F30008088E
:10022800F0397304880088120D30F200F20B1A2995
:1002380083120313881608160F307405F200080895
:10024800F0397204880088120D30F200F20B2A2966
:1002580083120313881608000A128A1198200A12BA
:100268008A115330FB007B0883120313A000F801A6
:100278002030FB007B08F90000300A128A11D720D1
:100288000A128A1146290A128A110C285829C730DD
:10029800F4004E29F40B4D29512952290130F2025C
:1002A8000030031CF303F30272087304031D5D2975
:1002B8005E294B2908007E088A007F0882000A12FE
:1002C8008A115F210A128A118000840A04087D06B7
:1002D80003190034FF0A0319FE0A6329F700770897
:1002E800F60006300310F60DFF3E031D762975084B
:1002F80076077F39803E0A128A1121200A128A1154
:100308000800831203138C1E8A298B2991291A0845
:100318000A128A11A9210A128A1171088A00700E1C
:100328008300FE0E7E0E0900203420342034203451
:100338002034203420342034203420342034203415
:0C0348002034203420342034003408001D
:04400E00D420FF3F7C
:00000001FF
