:020000040000FA
:100000000A128A11E42F00308A000408840A820749
:1000100000343134323433344134343435343634CA
:10002000423437343834393443342A343034233486
:10003000443420344D346F3474346F34723420348B
:1000400064346534203470346134733473346F3401
:10005000203400344E3475346D345034613473348C
:0C00600073346F3473343A3420340034AD
:1002B20004340634023403340134093408340C346F
:1002C200F030831603138600831603178901831601
:1002D20003138113FF309500FF308312031386004E
:1002E2000800F5007508F40006300310F40DFF3E17
:1002F200031D7629730874077F39803E0A128A111A
:1003020089240A128A1108007E088A007F08820066
:100312000A128A1185210A128A118000840A0408AD
:100322007D0603190034FF0A0319FE0A8929A6294A
:10033200C730F2009C29F20B9B299F29A02901308A
:10034200F0020030031CF103F10270087104031D76
:10035200AB29AC2999290800F300F201731CB229D8
:10036200B329B7297008F1007108F2070310F00DE4
:100372000310F30C7308031DBF29C029AF297208AB
:100382000800F401F501701CC729C829CE2972089A
:10039200F4070318F50A7308F50701300310F20D8C
:1003A200F30DFF3E031DCF2901300310F10CF00CB9
:1003B200FF3E031DD62970087104031DE129E229BD
:1003C200C4297508F1007408F0000800FA007608E4
:1003D200F8007808F9007608F8007808F3007A083F
:1003E2000A128A1172210A128A110B2A77088400D2
:1003F2000A128A1103200A128A110A128A114B2246
:100402000A128A110130F8007808F7070130F80063
:100412007808F907770884000A128A1103200A1261
:100422008A11003A031D162A172AF7290800831693
:10043200031307128312031307128316031387127F
:1004420083120313871283160313071383120313F2
:100452000713831603138713831203138713710879
:10046200C6007008C5000030C4000030C300003070
:10047200C2000030C100C901F030F20072088605E6
:1004820049084B3E8400831300080F39F2007208BA
:1004920086040800F2008312031308157208F000A4
:1004A20004300310F00CFF3E031D522A7008F100C5
:1004B20004300310F10DFF3E031D5A2A08080F39BC
:1004C2007104880088110D30F000F00B662A831247
:1004D2000313881508157208F00004300310F00D9C
:1004E200FF3E031D6F2A08080F3970048800881127
:1004F2000D30F000F00B7B2A8312031388150800DD
:100502006430F0000030F1000A128A1198210A12B8
:100512008A1183160313081188110812881208130E
:1005220088136430F0000030F1000A128A11982119
:100532000A128A1183120313881528300A128A11AB
:1005420089240A128A110C300A128A1189240A1289
:100552008A1101300A128A1189240A128A11023080
:100562000A128A1189240A128A116430F0000030BA
:10057200F1000A128A1198210A128A110800003029
:10058200FC000030FB000030FA000030F900701C63
:10059200CB2ACC2AE32A7408F90775080311031839
:1005A200013E0319D52AFA07760803110318013E02
:1005B2000319DC2AFB07770803110318013E03190C
:1005C200E32AFC070130F8000310F40DF50DF60DD7
:1005D200F70DF80BE52A01300310F30CF20CF10CC5
:1005E200F00CFF3E031DED2A7308720471047004BF
:1005F200031DFC2AFD2AC82A7C08F3007B08F200AE
:100602007A08F1007908F0000800F601F31F0A2BBE
:100612000B2B122BF209F309F20A0319F30AF60162
:10062200F60AF11F152B162B1B2BF009F109F00A04
:100632000319F10A700871040319202B212B502B86
:10064200F501F50A2F2B01300310F00DF10DFF3EDD
:10065200031D252B0130F4007408F507F11F322B1E
:10066200332B242B71087302031D392B700872027D
:10067200031C3C2B3D2B432B7008F2027108031C18
:10068200F303F30201300310F10CF00CFF3E031DE3
:10069200442B0130F502031D4F2B502B332B7608D0
:1006A2000319542B552B5A2BF209F309F20A031999
:1006B200F30A7308F1007208F0000800F701F8016C
:1006C20004307802031C662B672B682BB82B013091
:1006D200F000780A6E2B0310F00DFF3E031D6C2B09
:1006E2007008FF3A831203138600F9010609F0002D
:1006F200F101F109790AF2001030F3000030F40040
:10070200852B0310F30DF40DF20B822B7008730589
:10071200F50071087405F600750876040319922B2A
:10072200932BA92B7808F00002300310F00DFF3E46
:10073200031D962B01307007F100790871078400C0
:100742000A128A1103200A128A11F2007208F700B3
:100752000130F0007008F90704307902031CB22B53
:10076200B32B772B0130F0007008F807612B770864
:100772000800F601F11FBE2BBF2BC62BF009F109B1
:10078200F00A0319F10AF601F60AF31FC92BCA2B64
:10079200D32BF209F309F20A0319F30A0130F40028
:1007A2007408F606F701F801700871040319DA2BD0
:1007B200DB2B122CF501F50AE92B01300310F00DA9
:1007C200F10DFF3E031DDF2B0130F4007408F50725
:1007D200F11FEC2BED2BDE2B01300310F70DF80D82
:1007E200FF3E031DEE2B71087302031DFA2B7008E6
:1007F2007202031CFD2BFE2B052C7008F2027108FD
:10080200031CF303F302771401300310F10CF00C14
:10081200FF3E031D062C0130F502031D112C122C84
:10082200ED2B76080319162C172C1C2CF709F80946
:10083200F70A0319F80A7808F1007708F0000800AF
:10084200003083120313AB000030AA000030A9006D
:100852000030A80023082204210420040319322CAA
:10086200332C802CAC01AC0A432C0130FD00031068
:10087200A00DA10DA20DA30DFD0B382C0130FD0022
:100882007D08AC07A31F462C472C362C0130FD00F7
:100892000310A80DA90DAA0DAB0DFD0B492C2308C1
:1008A2002702031D5E2C22082602031D5E2C21084E
:1008B2002502031D5E2C20082402031C612C622CDD
:1008C200712C2008A4022108031C210FA502220872
:1008D200031C220FA6022308031C230FA7022814BD
:1008E20001300310A30CA20CA10CA00CFF3E031DAF
:1008F200722C0130AC02031D7F2C802C472C2B085C
:10090200A3002A08A2002908A1002808A0000800C4
:10091200F2008312031308117208F000043003106E
:10092200F00CFF3E031D902C7008F1000430031000
:10093200F10DFF3E031D982C08080F397104880041
:10094200881172030319A62CA72CAD2C0230720653
:10095200031DAC2CAD2CB72C0330F1009730F00006
:10096200F00BB12CF10BB12CB62CBB2C0D30F000DE
:10097200F00BB92C831203138815F0307205F000C6
:1009820020307006031DC62CC72CE42C08117208F7
:10099200F00004300310F00CFF3E031DCB2C700856
:1009A200F10004300310F10DFF3E031DD32C0808A3
:1009B2000F397104880088110D30F000F00BDF2C24
:1009C20083120313881508117208F0000430031013
:1009D200F00DFF3E031DE82C08080F397004880053
:1009E200881172030319F62CF72CFD2C02307206C3
:1009F200031DFC2CFD2C072D0330F1009730F00075
:100A0200F00B012DF10B012D062D0B2D0D30F000F9
:100A1200F00B092D83120313881508000A128A119C
:100A220081220A128A110A128A1161210A128A117A
:100A32009030F0000130F1000A128A1118220A12D5
:100A42008A11F601113083120313BB003B08F70031
:100A520000300A128A11E7210A128A110A128A1137
:100A62005F230A128A1183120313BB003B08BE00E4
:100A72003E08BB003B08A0004430BC003C08A1007B
:100A82005A30BD003D08A2000030A300A40010307F
:100A9200A5002730A6003F300A128A1145260A1205
:100AA2008A11F601223083120313BB003B08F700C0
:100AB20001300A128A11E7210A128A110B308312BD
:100AC2000313BB003B08F9004008FB003F08FA0093
:100AD2000530BC003C08FC0001300A128A110427D0
:100AE2000A128A112330831203133E06031D7A2D44
:100AF2007B2D2F2D3F08AD004008AE000030AE1B0D
:100B0200FF30AF00B000B101B10AB201B301C83089
:100B1200B4000030B5000A128A1195250A128A1112
:100B22002F2D0A128A110028023083120313B600F5
:100B32003608BA003108031D9F2DA02DD52D003097
:100B4200A3000030A2000130A1006830A0004508D7
:100B5200F0004608F100F201F3013008F7002F0817
:100B6200F6002E08F5002D08F4000A128A11C022A0
:100B72000A128A11730883120313A7007208A600CF
:100B82007108A5007008A4000A128A1121240A1211
:100B92008A11831203132308C4002208C300210808
:100BA200C2002008C100DD2D3008C4002F08C30098
:100BB2002E08C2002D08C1003303031DE12DE22DD2
:100BC200ED2D0130B6000310C10DC20DC30DC40DD1
:100BD200B60BE42DBA01BA0A3203031DF12DF22D30
:100BE2003A2E3A08B6003608F000FF300A128A118F
:100BF200AD210A128A1183120313B7003708BA0013
:100C02003A2E3A0849070739B6003608C900F030CB
:100C1200B6003608860549084B3E84008313000857
:100C22000F39B600360886040130B6000030B7002E
:100C32000030B8000030B9003608C1023708031C82
:100C4200370F242E252EC2023808031C380F2A2EF5
:100C52002B2EC3023908031C390F302E312EC40249
:100C62003508F1003408F0000A128A1198210A129C
:100C72008A11831203134408430442044104031DEE
:100C8200432E442E022E080083120313AB004A089F
:100C9200031D4C2E4D2EFF2E20080319512E522ECD
:100CA200FF2E30302002031C572E582EA72E3A302A
:100CB200200203185D2E5E2EA72E2B0884008313BC
:100CC2000008F000840A0008F1000A30F200003047
:100CD200F3000A128A11C2210A128A118312031323
:100CE20020087007F9000030031801307107FA007C
:100CF2007908D03EA7007A080318013EFF3EA800FB
:100D0200A901AA012508F9002608FA00FB01FC0145
:100D12007C08803AFF002A08803A7F02031D9B2E3E
:100D220029087B02031D9B2E28087A02031D9B2E95
:100D320027087902031C9E2E9F2EA72E2B088400C3
:100D4200270883138000840A2808800020082106CF
:100D5200031DAC2EAD2EE52E0A30F0000030F1005E
:100D62002B08840083130008F200840A0008F300B1
:100D72000A128A11BA230A128A118312031324084F
:100D82007102031DC62E23087002031CC92ECA2E2F
:100D9200E52E0A30F0000030F1002B0884008313A6
:100DA2000008F200840A0008F3000A128A11BA232A
:100DB2000A128A11831203132B088400700883130A
:100DC2008000840A7108800020082206031DEA2E92
:100DD200EB2EFF2E2B08840083130008F900840AEF
:100DE2000008FA00F909FA09F90A0319FA0A2B08A4
:100DF200840079088000840A7A0880002008F900BB
:100E02007908CA00080083120313A300FB1B0A2FF0
:100E12000C2F01300D2F0030A0002008A50025085E
:100E22000319142F152F1A2FFA09FB09FA0A0319AD
:100E3200FB0A7908A0002008F30023080A128A118D
:100E420072210A128A11103083120313A60027306E
:100E5200A7000530A0002008A4005B2F8312031313
:100E62002708F1002608F0007B08F3007A08F20058
:100E72000A128A11BA230A128A1170087104031D18
:100E8200432F442F712F013083120313A4020A301F
:100E9200F0000030F1002708F3002608F2000A12E1
:100EA2008A11BA230A128A11710883120313A70046
:100EB2007008A6002708803AFF0080307F02031DD9
:100EC200642F013026020318672F682F2F2F712FEE
:100ED20020300A128A114B220A128A110130FC02B6
:100EE2008312031324082507A000A101A10D2108E4
:100EF200803AA20080302202031D812F7C0820024A
:100F02000318842F852F8B2F02307C0203188A2F1F
:100F12008B2F692F8312031325080319912F922F08
:100F2200982F2D300A128A114B220A128A1183122B
:100F320003132708F1002608F0007B08F3007A0863
:100F4200F2000A128A11BA230A128A117008303E7C
:100F52000A128A114B220A128A11831203132708DA
:100F6200F1002608F0007B08F3007A08F2000A126A
:100F72008A1106230A128A117108FB007008FA000E
:100F82000A30F0000030F100831203132708F30047
:100F92002608F2000A128A11BA230A128A1171086B
:100FA20083120313A7007008A6002708803AFF00E7
:100FB20080307F02031DDF2F013026020318E22F4B
:100FC200E32F982F080083135330FD000130FE00F9
:100FD2005930FF004B3084000A128A1189210A120B
:100FE2008A11C101C201C301C401C501C601C70101
:0E0FF200C801C901CA0183010A128A110F2D1C
:04400E00D420FF3F7C
:00000001FF
